:1000000012C021C020C01FC01EC01DC01CC01BC00C
:100010001AC019C018C017C016C015C014C013C02C
:1000200012C011C010C011241FBECFE5D4E0DEBF46
:10003000CDBF20E0A0E6B0E001C01D92A137B2071D
:10004000E1F797D0E1C0DCCFCF93DF9300D000D0B1
:10005000CDB7DEB79A8389837C836B830000898167
:100060009A819C012F5F3F4F3A8329832B813C81EA
:10007000A9014F5F5F4F5C834B83F9012081FC0135
:100080002083FC018081882351F789819A810F9018
:100090000F900F900F90DF91CF910895CF93DF9342
:1000A000CDB7DEB72C970FB6F894DEBF0FBECDBF2D
:1000B0009C838B8380E790E09A8389838B819C81EA
:1000C00099230CF189819A8101979A8389838B8185
:1000D0009C812AE030E0B90170D0805D282F8981B1
:1000E0009A81FC0120838B819C812AE030E0B90158
:1000F00064D0CB019C838B838B819C81009711F70B
:1001000089819A812DC089819A8101979A838983F7
:100110008B819C812AE030E0B9014FD090E3F92F28
:10012000F81B8F2F282F89819A81FC0120838B81D6
:100130009C812AE030E0B90140D0CB019C838B83C5
:100140008B819C810097F9F689819A8101979A8326
:10015000898389819A812DE2FC01208389819A819A
:100160002C960FB6F894DEBF0FBECDBFDF91CF91B6
:100170000895CF93DF93CDB7DEB728970FB6F894E5
:10018000DEBF0FBECDBF82E990E19A83898389816A
:100190009A8184DF9C838B832B813C81CE010596E1
:1001A000B90152DF80E090E028960FB6F894DEBFE8
:1001B0000FBECDBFDF91CF91089597FB072E16F4A8
:1001C000009406D077FD08D00BD007FC05D03EF494
:1001D000909581959F4F0895709561957F4F0895F3
:1001E000AA1BBB1B51E107C0AA1FBB1FA617B7075D
:1001F00010F0A61BB70B881F991F5A95A9F7809579
:0C0200009095BC01CD010895F894FFCF4B
:00000001FF
