:1000000012C024C023C022C021C020C01FC01EC0F7
:100010001DC01CC01BC01AC019C018C017C016C014
:1000200015C014C013C011241FBECFE5D4E0DEBF3D
:10003000CDBF10E0A0E6B0E0E0EEF0E002C0059039
:100040000D92A037B107D9F702D048C0D9CFCF93CE
:10005000DF93CDB7DEB760970FB6F894DEBF0FBE63
:10006000CDBF60E670E0CE01019629D0CE010596A5
:1000700009D060960FB6F894DEBF0FBECDBFDF91FA
:10008000CF910895FC0188279927E8942191203287
:10009000E9F3293010F02E30C8F32B3239F02D322D
:1000A00031F4689403C012D0820F911D2191205326
:1000B0002A30C8F31EF4909581959F4F0895FB0157
:1000C000DC0101900D920020E1F708957AE0979FFE
:1000D000902D879F802D910D11240895F894FFCFC6
:1000E00048656C6C6F2C20576F726C64210A00009D
:00000001FF
